{
  "address": "0x8377654d4299Ff9Acad8458F8B9c2d84Ee592b7D",
  "abi": [
    {
      "inputs": [
        {
          "internalType": "address",
          "name": "initialOwner",
          "type": "address"
        }
      ],
      "stateMutability": "nonpayable",
      "type": "constructor"
    },
    {
      "inputs": [
        {
          "internalType": "address",
          "name": "spender",
          "type": "address"
        },
        {
          "internalType": "uint256",
          "name": "allowance",
          "type": "uint256"
        },
        {
          "internalType": "uint256",
          "name": "needed",
          "type": "uint256"
        }
      ],
      "name": "ERC20InsufficientAllowance",
      "type": "error"
    },
    {
      "inputs": [
        {
          "internalType": "address",
          "name": "sender",
          "type": "address"
        },
        {
          "internalType": "uint256",
          "name": "balance",
          "type": "uint256"
        },
        {
          "internalType": "uint256",
          "name": "needed",
          "type": "uint256"
        }
      ],
      "name": "ERC20InsufficientBalance",
      "type": "error"
    },
    {
      "inputs": [
        {
          "internalType": "address",
          "name": "approver",
          "type": "address"
        }
      ],
      "name": "ERC20InvalidApprover",
      "type": "error"
    },
    {
      "inputs": [
        {
          "internalType": "address",
          "name": "receiver",
          "type": "address"
        }
      ],
      "name": "ERC20InvalidReceiver",
      "type": "error"
    },
    {
      "inputs": [
        {
          "internalType": "address",
          "name": "sender",
          "type": "address"
        }
      ],
      "name": "ERC20InvalidSender",
      "type": "error"
    },
    {
      "inputs": [
        {
          "internalType": "address",
          "name": "spender",
          "type": "address"
        }
      ],
      "name": "ERC20InvalidSpender",
      "type": "error"
    },
    {
      "inputs": [
        {
          "internalType": "address",
          "name": "owner",
          "type": "address"
        }
      ],
      "name": "OwnableInvalidOwner",
      "type": "error"
    },
    {
      "inputs": [
        {
          "internalType": "address",
          "name": "account",
          "type": "address"
        }
      ],
      "name": "OwnableUnauthorizedAccount",
      "type": "error"
    },
    {
      "anonymous": false,
      "inputs": [
        {
          "indexed": true,
          "internalType": "address",
          "name": "owner",
          "type": "address"
        },
        {
          "indexed": true,
          "internalType": "address",
          "name": "spender",
          "type": "address"
        },
        {
          "indexed": false,
          "internalType": "uint256",
          "name": "value",
          "type": "uint256"
        }
      ],
      "name": "Approval",
      "type": "event"
    },
    {
      "anonymous": false,
      "inputs": [
        {
          "indexed": true,
          "internalType": "address",
          "name": "previousOwner",
          "type": "address"
        },
        {
          "indexed": true,
          "internalType": "address",
          "name": "newOwner",
          "type": "address"
        }
      ],
      "name": "OwnershipTransferred",
      "type": "event"
    },
    {
      "anonymous": false,
      "inputs": [
        {
          "indexed": true,
          "internalType": "address",
          "name": "from",
          "type": "address"
        },
        {
          "indexed": true,
          "internalType": "address",
          "name": "to",
          "type": "address"
        },
        {
          "indexed": false,
          "internalType": "uint256",
          "name": "value",
          "type": "uint256"
        }
      ],
      "name": "Transfer",
      "type": "event"
    },
    {
      "stateMutability": "payable",
      "type": "fallback"
    },
    {
      "inputs": [],
      "name": "USDTContractAddress",
      "outputs": [
        {
          "internalType": "address",
          "name": "",
          "type": "address"
        }
      ],
      "stateMutability": "view",
      "type": "function"
    },
    {
      "inputs": [
        {
          "internalType": "address",
          "name": "owner",
          "type": "address"
        },
        {
          "internalType": "address",
          "name": "spender",
          "type": "address"
        }
      ],
      "name": "allowance",
      "outputs": [
        {
          "internalType": "uint256",
          "name": "",
          "type": "uint256"
        }
      ],
      "stateMutability": "view",
      "type": "function"
    },
    {
      "inputs": [
        {
          "internalType": "address",
          "name": "",
          "type": "address"
        }
      ],
      "name": "amountInvestedInUSDTOf",
      "outputs": [
        {
          "internalType": "uint256",
          "name": "",
          "type": "uint256"
        }
      ],
      "stateMutability": "view",
      "type": "function"
    },
    {
      "inputs": [
        {
          "internalType": "address",
          "name": "",
          "type": "address"
        }
      ],
      "name": "amountInvestedInWeiOf",
      "outputs": [
        {
          "internalType": "uint256",
          "name": "",
          "type": "uint256"
        }
      ],
      "stateMutability": "view",
      "type": "function"
    },
    {
      "inputs": [
        {
          "internalType": "address",
          "name": "spender",
          "type": "address"
        },
        {
          "internalType": "uint256",
          "name": "value",
          "type": "uint256"
        }
      ],
      "name": "approve",
      "outputs": [
        {
          "internalType": "bool",
          "name": "",
          "type": "bool"
        }
      ],
      "stateMutability": "nonpayable",
      "type": "function"
    },
    {
      "inputs": [
        {
          "internalType": "address",
          "name": "account",
          "type": "address"
        }
      ],
      "name": "balanceOf",
      "outputs": [
        {
          "internalType": "uint256",
          "name": "",
          "type": "uint256"
        }
      ],
      "stateMutability": "view",
      "type": "function"
    },
    {
      "inputs": [
        {
          "internalType": "uint256",
          "name": "value",
          "type": "uint256"
        }
      ],
      "name": "burn",
      "outputs": [],
      "stateMutability": "nonpayable",
      "type": "function"
    },
    {
      "inputs": [
        {
          "internalType": "address",
          "name": "account",
          "type": "address"
        },
        {
          "internalType": "uint256",
          "name": "value",
          "type": "uint256"
        }
      ],
      "name": "burnFrom",
      "outputs": [],
      "stateMutability": "nonpayable",
      "type": "function"
    },
    {
      "inputs": [],
      "name": "decimals",
      "outputs": [
        {
          "internalType": "uint8",
          "name": "",
          "type": "uint8"
        }
      ],
      "stateMutability": "view",
      "type": "function"
    },
    {
      "inputs": [],
      "name": "ethUsdPrice",
      "outputs": [
        {
          "internalType": "uint256",
          "name": "",
          "type": "uint256"
        }
      ],
      "stateMutability": "view",
      "type": "function"
    },
    {
      "inputs": [],
      "name": "getAllowanceInUSDT",
      "outputs": [
        {
          "internalType": "uint256",
          "name": "",
          "type": "uint256"
        }
      ],
      "stateMutability": "view",
      "type": "function"
    },
    {
      "inputs": [
        {
          "internalType": "address",
          "name": "addr",
          "type": "address"
        }
      ],
      "name": "getBalanceInUSDT",
      "outputs": [
        {
          "internalType": "uint256",
          "name": "",
          "type": "uint256"
        }
      ],
      "stateMutability": "view",
      "type": "function"
    },
    {
      "inputs": [],
      "name": "getContractsBalanceInWei",
      "outputs": [
        {
          "internalType": "uint256",
          "name": "",
          "type": "uint256"
        }
      ],
      "stateMutability": "view",
      "type": "function"
    },
    {
      "inputs": [],
      "name": "getEthUsdLatestPrice",
      "outputs": [
        {
          "internalType": "uint256",
          "name": "",
          "type": "uint256"
        }
      ],
      "stateMutability": "view",
      "type": "function"
    },
    {
      "inputs": [],
      "name": "getUSDTSupply",
      "outputs": [
        {
          "internalType": "uint256",
          "name": "",
          "type": "uint256"
        }
      ],
      "stateMutability": "view",
      "type": "function"
    },
    {
      "inputs": [],
      "name": "getXagUsdLatestPrice",
      "outputs": [
        {
          "internalType": "uint256",
          "name": "",
          "type": "uint256"
        }
      ],
      "stateMutability": "view",
      "type": "function"
    },
    {
      "inputs": [],
      "name": "investWithEther",
      "outputs": [],
      "stateMutability": "payable",
      "type": "function"
    },
    {
      "inputs": [
        {
          "internalType": "uint256",
          "name": "amount",
          "type": "uint256"
        }
      ],
      "name": "investWithUSDT",
      "outputs": [],
      "stateMutability": "payable",
      "type": "function"
    },
    {
      "inputs": [],
      "name": "mdstUsdPriceWithCents",
      "outputs": [
        {
          "internalType": "uint256",
          "name": "",
          "type": "uint256"
        }
      ],
      "stateMutability": "view",
      "type": "function"
    },
    {
      "inputs": [
        {
          "internalType": "address",
          "name": "to",
          "type": "address"
        },
        {
          "internalType": "uint256",
          "name": "amount",
          "type": "uint256"
        }
      ],
      "name": "mint",
      "outputs": [],
      "stateMutability": "nonpayable",
      "type": "function"
    },
    {
      "inputs": [],
      "name": "name",
      "outputs": [
        {
          "internalType": "string",
          "name": "",
          "type": "string"
        }
      ],
      "stateMutability": "view",
      "type": "function"
    },
    {
      "inputs": [],
      "name": "owner",
      "outputs": [
        {
          "internalType": "address",
          "name": "",
          "type": "address"
        }
      ],
      "stateMutability": "view",
      "type": "function"
    },
    {
      "inputs": [],
      "name": "renounceOwnership",
      "outputs": [],
      "stateMutability": "nonpayable",
      "type": "function"
    },
    {
      "inputs": [],
      "name": "reserveInUsdFromRemaindersWithCents",
      "outputs": [
        {
          "internalType": "uint256",
          "name": "",
          "type": "uint256"
        }
      ],
      "stateMutability": "view",
      "type": "function"
    },
    {
      "inputs": [
        {
          "internalType": "address payable",
          "name": "_to",
          "type": "address"
        }
      ],
      "name": "sendViaCall",
      "outputs": [],
      "stateMutability": "payable",
      "type": "function"
    },
    {
      "inputs": [
        {
          "internalType": "address payable",
          "name": "_to",
          "type": "address"
        }
      ],
      "name": "sendViaSend",
      "outputs": [],
      "stateMutability": "payable",
      "type": "function"
    },
    {
      "inputs": [
        {
          "internalType": "address payable",
          "name": "_to",
          "type": "address"
        }
      ],
      "name": "sendViaTransfer",
      "outputs": [],
      "stateMutability": "payable",
      "type": "function"
    },
    {
      "inputs": [
        {
          "internalType": "address",
          "name": "xagusd",
          "type": "address"
        },
        {
          "internalType": "address",
          "name": "ethusd",
          "type": "address"
        }
      ],
      "name": "setAgregatorsManually",
      "outputs": [],
      "stateMutability": "nonpayable",
      "type": "function"
    },
    {
      "inputs": [
        {
          "internalType": "uint256",
          "name": "price",
          "type": "uint256"
        }
      ],
      "name": "setEthUsdManually",
      "outputs": [],
      "stateMutability": "nonpayable",
      "type": "function"
    },
    {
      "inputs": [
        {
          "internalType": "address",
          "name": "addr",
          "type": "address"
        }
      ],
      "name": "setUSDTContractAddress",
      "outputs": [],
      "stateMutability": "nonpayable",
      "type": "function"
    },
    {
      "inputs": [
        {
          "internalType": "uint256",
          "name": "price",
          "type": "uint256"
        }
      ],
      "name": "setXagUsdManually",
      "outputs": [],
      "stateMutability": "nonpayable",
      "type": "function"
    },
    {
      "inputs": [],
      "name": "symbol",
      "outputs": [
        {
          "internalType": "string",
          "name": "",
          "type": "string"
        }
      ],
      "stateMutability": "view",
      "type": "function"
    },
    {
      "inputs": [],
      "name": "totalSupply",
      "outputs": [
        {
          "internalType": "uint256",
          "name": "",
          "type": "uint256"
        }
      ],
      "stateMutability": "view",
      "type": "function"
    },
    {
      "inputs": [
        {
          "internalType": "address",
          "name": "to",
          "type": "address"
        },
        {
          "internalType": "uint256",
          "name": "value",
          "type": "uint256"
        }
      ],
      "name": "transfer",
      "outputs": [
        {
          "internalType": "bool",
          "name": "",
          "type": "bool"
        }
      ],
      "stateMutability": "nonpayable",
      "type": "function"
    },
    {
      "inputs": [
        {
          "internalType": "address",
          "name": "from",
          "type": "address"
        },
        {
          "internalType": "address",
          "name": "to",
          "type": "address"
        },
        {
          "internalType": "uint256",
          "name": "value",
          "type": "uint256"
        }
      ],
      "name": "transferFrom",
      "outputs": [
        {
          "internalType": "bool",
          "name": "",
          "type": "bool"
        }
      ],
      "stateMutability": "nonpayable",
      "type": "function"
    },
    {
      "inputs": [
        {
          "internalType": "address",
          "name": "newOwner",
          "type": "address"
        }
      ],
      "name": "transferOwnership",
      "outputs": [],
      "stateMutability": "nonpayable",
      "type": "function"
    },
    {
      "inputs": [
        {
          "internalType": "uint256",
          "name": "amount",
          "type": "uint256"
        }
      ],
      "name": "withdrawInUSDT",
      "outputs": [],
      "stateMutability": "payable",
      "type": "function"
    },
    {
      "inputs": [],
      "name": "xagUsdPrice",
      "outputs": [
        {
          "internalType": "uint256",
          "name": "",
          "type": "uint256"
        }
      ],
      "stateMutability": "view",
      "type": "function"
    },
    {
      "stateMutability": "payable",
      "type": "receive"
    }
  ],
  "transactionHash": "0x4c686a43ef63422e95eb2daabfcb075dcba309cba2af1bed47103146bac284ff",
  "args": [
    "0x00F50C0c6407eDF5b146FAdE0E8821dcf8cd43Bc"
  ],
  "numDeployments": 1,
  "solcInputHash": "37fac4ed4ee04983d6f4a0c7031fbcf4",
  "bytecode": "0x610100604052600c6080819052600a60a0819052600560c0819052630eeec60760e0819052600b84905591909255600d91909155600e553480156200004357600080fd5b5060405162001a3d38038062001a3d833981016040819052620000669162000178565b806040518060400160405280600d81526020016c26b2b229b430b932aa37b5b2b760991b81525060405180604001604052806004815260200163135114d560e21b8152508160039081620000bb91906200024f565b506004620000ca82826200024f565b5050506001600160a01b038116620000fc57604051631e4fbdf760e01b81526000600482015260240160405180910390fd5b620001078162000126565b5050644dd3b359f560095563b030fb006008556102da600a556200031b565b600580546001600160a01b038381166001600160a01b0319831681179093556040519116919082907f8be0079c531659141344cd1fd0a4f28419497f9722a3daafe3b4186f6b6457e090600090a35050565b6000602082840312156200018b57600080fd5b81516001600160a01b0381168114620001a357600080fd5b9392505050565b634e487b7160e01b600052604160045260246000fd5b600181811c90821680620001d557607f821691505b602082108103620001f657634e487b7160e01b600052602260045260246000fd5b50919050565b601f8211156200024a57600081815260208120601f850160051c81016020861015620002255750805b601f850160051c820191505b81811015620002465782815560010162000231565b5050505b505050565b81516001600160401b038111156200026b576200026b620001aa565b62000283816200027c8454620001c0565b84620001fc565b602080601f831160018114620002bb5760008415620002a25750858301515b600019600386901b1c1916600185901b17855562000246565b600085815260208120601f198616915b82811015620002ec57888601518255948401946001909101908401620002cb565b50858210156200030b5787850151600019600388901b60f8161c191681555b5050505050600190811b01905550565b611712806200032b6000396000f3fe6080604052600436106102115760003560e01c806374be48061161011757806395d89b41116100a5578063dfd4d6aa1161006c578063dfd4d6aa1461060d578063e4daec0414610623578063e8024a8f14610636578063edb0c1cc14610656578063f2fde38b1461066c57005b806395d89b411461056a578063a22de9721461057f578063a9059cbb1461059f578063c0f310de146105bf578063dd62ed3e146105c757005b8063830c29ae116100e9578063830c29ae146104d657806386487f0d146104e95780638da5cb5b146105215780638f45cc881461053f5780639478ab8c1461055457005b806374be48061461047057806379cc6790146104835780637c37f7bc146104a35780638251e3c2146104c357005b80633b8592f91161019f5780635958d180116101665780635958d180146103d0578063636e082b146103fd5780636dd2bbe01461041057806370a0823114610425578063715018a61461045b57005b80633b8592f9146103475780633c486a991461036757806340c10f191461037d57806342966c681461039d578063591447e9146103bd57005b806318160ddd116101e357806318160ddd146102b45780631e36ced2146102c95780631f2a3b83146102de57806323b872dd1461030b578063313ce5671461032b57005b80630273dff51461021a57806306fdde0314610242578063095ea7b3146102645780630a7eac731461029457005b3661021857005b005b34801561022657600080fd5b5061022f61068c565b6040519081526020015b60405180910390f35b34801561024e57600080fd5b50610257610705565b6040516102399190611341565b34801561027057600080fd5b5061028461027f3660046113a4565b610797565b6040519015158152602001610239565b3480156102a057600080fd5b506102186102af3660046113d0565b6107b1565b3480156102c057600080fd5b5060025461022f565b3480156102d557600080fd5b5061022f6107be565b3480156102ea57600080fd5b5061022f6102f93660046113e9565b60106020526000908152604090205481565b34801561031757600080fd5b5061028461032636600461140d565b610843565b34801561033757600080fd5b5060405160028152602001610239565b34801561035357600080fd5b506102186103623660046113e9565b610867565b34801561037357600080fd5b5061022f60085481565b34801561038957600080fd5b506102186103983660046113a4565b610891565b3480156103a957600080fd5b506102186103b83660046113d0565b6108a7565b6102186103cb3660046113d0565b6108b4565b3480156103dc57600080fd5b5061022f6103eb3660046113e9565b600f6020526000908152604090205481565b61021861040b3660046113e9565b610930565b34801561041c57600080fd5b5061022f610965565b34801561043157600080fd5b5061022f6104403660046113e9565b6001600160a01b031660009081526020819052604090205490565b34801561046757600080fd5b50610218610996565b61021861047e3660046113e9565b6109aa565b34801561048f57600080fd5b5061021861049e3660046113a4565b610a16565b3480156104af57600080fd5b506102186104be3660046113d0565b610a2b565b6102186104d13660046113d0565b610a38565b6102186104e43660046113e9565b610cbc565b3480156104f557600080fd5b50601254610509906001600160a01b031681565b6040516001600160a01b039091168152602001610239565b34801561052d57600080fd5b506005546001600160a01b0316610509565b34801561054b57600080fd5b5061022f610d5d565b34801561056057600080fd5b5061022f60095481565b34801561057657600080fd5b50610257610db3565b34801561058b57600080fd5b5061021861059a36600461144e565b610dc2565b3480156105ab57600080fd5b506102846105ba3660046113a4565b610df8565b610218610e06565b3480156105d357600080fd5b5061022f6105e236600461144e565b6001600160a01b03918216600090815260016020908152604080832093909416825291909152205490565b34801561061957600080fd5b5061022f600a5481565b34801561062f57600080fd5b504761022f565b34801561064257600080fd5b5061022f6106513660046113e9565b610ec9565b34801561066257600080fd5b5061022f60115481565b34801561067857600080fd5b506102186106873660046113e9565b610f38565b601254604051636eb1769f60e11b81523360048201523060248201526000916001600160a01b03169063dd62ed3e906044015b602060405180830381865afa1580156106dc573d6000803e3d6000fd5b505050506040513d601f19601f820116820180604052508101906107009190611487565b905090565b606060038054610714906114a0565b80601f0160208091040260200160405190810160405280929190818152602001828054610740906114a0565b801561078d5780601f106107625761010080835404028352916020019161078d565b820191906000526020600020905b81548152906001019060200180831161077057829003601f168201915b5050505050905090565b6000336107a5818585610f73565b60019150505b92915050565b6107b9610f80565b600955565b600080600660009054906101000a90046001600160a01b03166001600160a01b031663feaf968c6040518163ffffffff1660e01b815260040160a060405180830381865afa158015610814573d6000803e3d6000fd5b505050506040513d601f19601f8201168201806040525081019061083891906114f9565b509195945050505050565b600033610851858285610fad565b61085c858585611025565b506001949350505050565b61086f610f80565b601280546001600160a01b0319166001600160a01b0392909216919091179055565b610899610f80565b6108a38282611084565b5050565b6108b133826110ba565b50565b33600090815260106020526040902054818110156108a35760405162461bcd60e51b815260206004820152602e60248201527f596f752068617665206e6f7420696e76657374656420656e6f7567682055534460448201526d2a103a37903bb4ba34323930bb9760911b60648201526084015b60405180910390fd5b6040516001600160a01b038216903480156108fc02916000818181858888f193505050501580156108a3573d6000803e3d6000fd5b6012546040516370a0823160e01b81523060048201526000916001600160a01b0316906370a08231906024016106bf565b61099e610f80565b6109a860006110f0565b565b6040516000906001600160a01b038316903480156108fc029184818181858888f193505050509050806108a35760405162461bcd60e51b81526020600482015260146024820152732330b4b632b2103a379039b2b7321022ba3432b960611b6044820152606401610927565b610a21823383610fad565b6108a382826110ba565b610a33610f80565b600855565b6000610a4261068c565b905081811015610afc5760405162461bcd60e51b815260206004820152607360248201527f596f75206e65656420746f20617070726f7665207468697320636f6e7472616360448201527f74277320616464726573732c2077697468206174206c6561737420746865206460648201527f65736972656420616d6f756e7420746f20626520696e7665737465642c20696e608482015272103a3432902aa9a22a1021b7b73a3930b1ba1760691b60a482015260c401610927565b6012546040516323b872dd60e01b8152336004820152306024820152604481018490526000916001600160a01b0316906323b872dd906064016020604051808303816000875af1158015610b54573d6000803e3d6000fd5b505050506040513d601f19601f82011682018060405250810190610b789190611549565b905080610bfd5760405162461bcd60e51b815260206004820152604760248201527f556e666f7274756e6174656c7920746865207472616e7366657220776173206e60448201527f6f7420636f6d706c657465642e204e6f2066756e64732077657265207472616e60648201526639b332b932b21760c91b608482015260a401610927565b33600090815260106020526040902054610c178482611581565b33600090815260106020526040902055600e5460085466038d7ea4c6800091610c3f91611594565b610c4991906115c1565b600a556000610c5a612710866115c1565b90506000600a5482610c6c91906115c1565b9050600a5482610c7c91906115d5565b60116000828254610c8d9190611581565b90915550610cb490503360025b610ca590600a6116cd565b610caf9084611594565b611084565b505050505050565b600080826001600160a01b03163460405160006040518083038185875af1925050503d8060008114610d0a576040519150601f19603f3d011682016040523d82523d6000602084013e610d0f565b606091505b509150915081610d585760405162461bcd60e51b81526020600482015260146024820152732330b4b632b2103a379039b2b7321022ba3432b960611b6044820152606401610927565b505050565b600080600760009054906101000a90046001600160a01b03166001600160a01b031663feaf968c6040518163ffffffff1660e01b815260040160a060405180830381865afa158015610814573d6000803e3d6000fd5b606060048054610714906114a0565b610dca610f80565b600680546001600160a01b039384166001600160a01b03199182161790915560078054929093169116179055565b6000336107a5818585611025565b336000908152600f60205260409020543490610e228282611581565b336000908152600f602052604081209190915560095469d3c21bcecceda100000090610e4e9085611594565b610e5891906115c1565b905066038d7ea4c68000600b60030154600854610e759190611594565b610e7f91906115c1565b600a819055600090610e9190836115c1565b9050600a5482610ea191906115d5565b60116000828254610eb29190611581565b90915550610ec39050336002610c9a565b50505050565b6012546040516370a0823160e01b81526001600160a01b03838116600483015260009216906370a0823190602401602060405180830381865afa158015610f14573d6000803e3d6000fd5b505050506040513d601f19601f820116820180604052508101906107ab9190611487565b610f40610f80565b6001600160a01b038116610f6a57604051631e4fbdf760e01b815260006004820152602401610927565b6108b1816110f0565b610d588383836001611142565b6005546001600160a01b031633146109a85760405163118cdaa760e01b8152336004820152602401610927565b6001600160a01b038381166000908152600160209081526040808320938616835292905220546000198114610ec3578181101561101657604051637dc7a0d960e11b81526001600160a01b03841660048201526024810182905260448101839052606401610927565b610ec384848484036000611142565b6001600160a01b03831661104f57604051634b637e8f60e11b815260006004820152602401610927565b6001600160a01b0382166110795760405163ec442f0560e01b815260006004820152602401610927565b610d58838383611217565b6001600160a01b0382166110ae5760405163ec442f0560e01b815260006004820152602401610927565b6108a360008383611217565b6001600160a01b0382166110e457604051634b637e8f60e11b815260006004820152602401610927565b6108a382600083611217565b600580546001600160a01b038381166001600160a01b0319831681179093556040519116919082907f8be0079c531659141344cd1fd0a4f28419497f9722a3daafe3b4186f6b6457e090600090a35050565b6001600160a01b03841661116c5760405163e602df0560e01b815260006004820152602401610927565b6001600160a01b03831661119657604051634a1406b160e11b815260006004820152602401610927565b6001600160a01b0380851660009081526001602090815260408083209387168352929052208290558015610ec357826001600160a01b0316846001600160a01b03167f8c5be1e5ebec7d5bd14f71427d1e84f3dd0314c0f7b2291e5b200ac8c7c3b9258460405161120991815260200190565b60405180910390a350505050565b6001600160a01b0383166112425780600260008282546112379190611581565b909155506112b49050565b6001600160a01b038316600090815260208190526040902054818110156112955760405163391434e360e21b81526001600160a01b03851660048201526024810182905260448101839052606401610927565b6001600160a01b03841660009081526020819052604090209082900390555b6001600160a01b0382166112d0576002805482900390556112ef565b6001600160a01b03821660009081526020819052604090208054820190555b816001600160a01b0316836001600160a01b03167fddf252ad1be2c89b69c2b068fc378daa952ba7f163c4a11628f55a4df523b3ef8360405161133491815260200190565b60405180910390a3505050565b600060208083528351808285015260005b8181101561136e57858101830151858201604001528201611352565b506000604082860101526040601f19601f8301168501019250505092915050565b6001600160a01b03811681146108b157600080fd5b600080604083850312156113b757600080fd5b82356113c28161138f565b946020939093013593505050565b6000602082840312156113e257600080fd5b5035919050565b6000602082840312156113fb57600080fd5b81356114068161138f565b9392505050565b60008060006060848603121561142257600080fd5b833561142d8161138f565b9250602084013561143d8161138f565b929592945050506040919091013590565b6000806040838503121561146157600080fd5b823561146c8161138f565b9150602083013561147c8161138f565b809150509250929050565b60006020828403121561149957600080fd5b5051919050565b600181811c908216806114b457607f821691505b6020821081036114d457634e487b7160e01b600052602260045260246000fd5b50919050565b805169ffffffffffffffffffff811681146114f457600080fd5b919050565b600080600080600060a0868803121561151157600080fd5b61151a866114da565b945060208601519350604086015192506060860151915061153d608087016114da565b90509295509295909350565b60006020828403121561155b57600080fd5b8151801515811461140657600080fd5b634e487b7160e01b600052601160045260246000fd5b808201808211156107ab576107ab61156b565b80820281158282048414176107ab576107ab61156b565b634e487b7160e01b600052601260045260246000fd5b6000826115d0576115d06115ab565b500490565b6000826115e4576115e46115ab565b500690565b600181815b8085111561162457816000190482111561160a5761160a61156b565b8085161561161757918102915b93841c93908002906115ee565b509250929050565b60008261163b575060016107ab565b81611648575060006107ab565b816001811461165e576002811461166857611684565b60019150506107ab565b60ff8411156116795761167961156b565b50506001821b6107ab565b5060208310610133831016604e8410600b84101617156116a7575081810a6107ab565b6116b183836115e9565b80600019048211156116c5576116c561156b565b029392505050565b600061140660ff84168361162c56fea26469706673582212207abe566f9bdbceb3de0c5ebe1bf25b1a35efd5795a5ada9b9686ae458bc8897d64736f6c63430008140033",
  "devdoc": {
    "custom:security-contact": "dimitrileite@hotmail.com",
    "errors": {
      "ERC20InsufficientAllowance(address,uint256,uint256)": [
        {
          "details": "Indicates a failure with the `spender`s `allowance`. Used in transfers.",
          "params": {
            "allowance": "Amount of tokens a `spender` is allowed to operate with.",
            "needed": "Minimum amount required to perform a transfer.",
            "spender": "Address that may be allowed to operate on tokens without being their owner."
          }
        }
      ],
      "ERC20InsufficientBalance(address,uint256,uint256)": [
        {
          "details": "Indicates an error related to the current `balance` of a `sender`. Used in transfers.",
          "params": {
            "balance": "Current balance for the interacting account.",
            "needed": "Minimum amount required to perform a transfer.",
            "sender": "Address whose tokens are being transferred."
          }
        }
      ],
      "ERC20InvalidApprover(address)": [
        {
          "details": "Indicates a failure with the `approver` of a token to be approved. Used in approvals.",
          "params": {
            "approver": "Address initiating an approval operation."
          }
        }
      ],
      "ERC20InvalidReceiver(address)": [
        {
          "details": "Indicates a failure with the token `receiver`. Used in transfers.",
          "params": {
            "receiver": "Address to which tokens are being transferred."
          }
        }
      ],
      "ERC20InvalidSender(address)": [
        {
          "details": "Indicates a failure with the token `sender`. Used in transfers.",
          "params": {
            "sender": "Address whose tokens are being transferred."
          }
        }
      ],
      "ERC20InvalidSpender(address)": [
        {
          "details": "Indicates a failure with the `spender` to be approved. Used in approvals.",
          "params": {
            "spender": "Address that may be allowed to operate on tokens without being their owner."
          }
        }
      ],
      "OwnableInvalidOwner(address)": [
        {
          "details": "The owner is not a valid owner account. (eg. `address(0)`)"
        }
      ],
      "OwnableUnauthorizedAccount(address)": [
        {
          "details": "The caller account is not authorized to perform an operation."
        }
      ]
    },
    "events": {
      "Approval(address,address,uint256)": {
        "details": "Emitted when the allowance of a `spender` for an `owner` is set by a call to {approve}. `value` is the new allowance."
      },
      "Transfer(address,address,uint256)": {
        "details": "Emitted when `value` tokens are moved from one account (`from`) to another (`to`). Note that `value` may be zero."
      }
    },
    "kind": "dev",
    "methods": {
      "allowance(address,address)": {
        "details": "See {IERC20-allowance}."
      },
      "approve(address,uint256)": {
        "details": "See {IERC20-approve}. NOTE: If `value` is the maximum `uint256`, the allowance is not updated on `transferFrom`. This is semantically equivalent to an infinite approval. Requirements: - `spender` cannot be the zero address."
      },
      "balanceOf(address)": {
        "details": "See {IERC20-balanceOf}."
      },
      "burn(uint256)": {
        "details": "Destroys a `value` amount of tokens from the caller. See {ERC20-_burn}."
      },
      "burnFrom(address,uint256)": {
        "details": "Destroys a `value` amount of tokens from `account`, deducting from the caller's allowance. See {ERC20-_burn} and {ERC20-allowance}. Requirements: - the caller must have allowance for ``accounts``'s tokens of at least `value`."
      },
      "name()": {
        "details": "Returns the name of the token."
      },
      "owner()": {
        "details": "Returns the address of the current owner."
      },
      "renounceOwnership()": {
        "details": "Leaves the contract without owner. It will not be possible to call `onlyOwner` functions. Can only be called by the current owner. NOTE: Renouncing ownership will leave the contract without an owner, thereby disabling any functionality that is only available to the owner."
      },
      "symbol()": {
        "details": "Returns the symbol of the token, usually a shorter version of the name."
      },
      "totalSupply()": {
        "details": "See {IERC20-totalSupply}."
      },
      "transfer(address,uint256)": {
        "details": "See {IERC20-transfer}. Requirements: - `to` cannot be the zero address. - the caller must have a balance of at least `value`."
      },
      "transferFrom(address,address,uint256)": {
        "details": "See {IERC20-transferFrom}. Emits an {Approval} event indicating the updated allowance. This is not required by the EIP. See the note at the beginning of {ERC20}. NOTE: Does not update the allowance if the current allowance is the maximum `uint256`. Requirements: - `from` and `to` cannot be the zero address. - `from` must have a balance of at least `value`. - the caller must have allowance for ``from``'s tokens of at least `value`."
      },
      "transferOwnership(address)": {
        "details": "Transfers ownership of the contract to a new account (`newOwner`). Can only be called by the current owner."
      }
    },
    "version": 1
  },
  "userdoc": {
    "kind": "user",
    "methods": {
      "decimals()": {
        "notice": "MedShareToken (MDST) has only 02 decimal places, so we've used: amount * 10**decimals() XagUsd and EthUsd prices have 8 decimal places."
      },
      "getAllowanceInUSDT()": {
        "notice": "Gets the allowance in USDT"
      },
      "getBalanceInUSDT(address)": {
        "notice": "Gets an account's balance in USDT"
      },
      "getEthUsdLatestPrice()": {
        "notice": "Returns the latest EthUsd price."
      },
      "getUSDTSupply()": {
        "notice": "Gets this contract's supply of USDT"
      },
      "getXagUsdLatestPrice()": {
        "notice": "Returns the latest XagUsd price."
      },
      "investWithUSDT(uint256)": {
        "notice": "Invest with USDT with 6 decimals"
      },
      "setAgregatorsManually(address,address)": {
        "notice": "Sets Chainlink agregators manually"
      },
      "setEthUsdManually(uint256)": {
        "notice": "Sets EthUsd price with 08 decimal places manually"
      },
      "setUSDTContractAddress(address)": {
        "notice": "Sets USDT contract address manually (ERC-20) (only owner)"
      },
      "setXagUsdManually(uint256)": {
        "notice": "Sets XagUsd price with 08 decimal places manually"
      },
      "withdrawInUSDT(uint256)": {
        "notice": "Withdraw your Investment in USDT with 6 decimals. Initially we are going to issue USDT back to those that had invested in USDT."
      }
    },
    "version": 1
  },
  "storageLayout": {
    "storage": [
      {
        "astId": 353,
        "contract": "contracts/MedShareContract.sol:MedShareContract",
        "label": "_balances",
        "offset": 0,
        "slot": "0",
        "type": "t_mapping(t_address,t_uint256)"
      },
      {
        "astId": 359,
        "contract": "contracts/MedShareContract.sol:MedShareContract",
        "label": "_allowances",
        "offset": 0,
        "slot": "1",
        "type": "t_mapping(t_address,t_mapping(t_address,t_uint256))"
      },
      {
        "astId": 361,
        "contract": "contracts/MedShareContract.sol:MedShareContract",
        "label": "_totalSupply",
        "offset": 0,
        "slot": "2",
        "type": "t_uint256"
      },
      {
        "astId": 363,
        "contract": "contracts/MedShareContract.sol:MedShareContract",
        "label": "_name",
        "offset": 0,
        "slot": "3",
        "type": "t_string_storage"
      },
      {
        "astId": 365,
        "contract": "contracts/MedShareContract.sol:MedShareContract",
        "label": "_symbol",
        "offset": 0,
        "slot": "4",
        "type": "t_string_storage"
      },
      {
        "astId": 54,
        "contract": "contracts/MedShareContract.sol:MedShareContract",
        "label": "_owner",
        "offset": 0,
        "slot": "5",
        "type": "t_address"
      },
      {
        "astId": 1090,
        "contract": "contracts/MedShareContract.sol:MedShareContract",
        "label": "dataFeedXagUsd",
        "offset": 0,
        "slot": "6",
        "type": "t_contract(AggregatorV3Interface)45"
      },
      {
        "astId": 1093,
        "contract": "contracts/MedShareContract.sol:MedShareContract",
        "label": "dataFeedEthUsd",
        "offset": 0,
        "slot": "7",
        "type": "t_contract(AggregatorV3Interface)45"
      },
      {
        "astId": 1095,
        "contract": "contracts/MedShareContract.sol:MedShareContract",
        "label": "xagUsdPrice",
        "offset": 0,
        "slot": "8",
        "type": "t_uint256"
      },
      {
        "astId": 1097,
        "contract": "contracts/MedShareContract.sol:MedShareContract",
        "label": "ethUsdPrice",
        "offset": 0,
        "slot": "9",
        "type": "t_uint256"
      },
      {
        "astId": 1099,
        "contract": "contracts/MedShareContract.sol:MedShareContract",
        "label": "mdstUsdPriceWithCents",
        "offset": 0,
        "slot": "10",
        "type": "t_uint256"
      },
      {
        "astId": 1117,
        "contract": "contracts/MedShareContract.sol:MedShareContract",
        "label": "misc",
        "offset": 0,
        "slot": "11",
        "type": "t_struct(Misc)1108_storage"
      },
      {
        "astId": 1121,
        "contract": "contracts/MedShareContract.sol:MedShareContract",
        "label": "amountInvestedInWeiOf",
        "offset": 0,
        "slot": "15",
        "type": "t_mapping(t_address,t_uint256)"
      },
      {
        "astId": 1125,
        "contract": "contracts/MedShareContract.sol:MedShareContract",
        "label": "amountInvestedInUSDTOf",
        "offset": 0,
        "slot": "16",
        "type": "t_mapping(t_address,t_uint256)"
      },
      {
        "astId": 1127,
        "contract": "contracts/MedShareContract.sol:MedShareContract",
        "label": "reserveInUsdFromRemaindersWithCents",
        "offset": 0,
        "slot": "17",
        "type": "t_uint256"
      },
      {
        "astId": 1129,
        "contract": "contracts/MedShareContract.sol:MedShareContract",
        "label": "USDTContractAddress",
        "offset": 0,
        "slot": "18",
        "type": "t_address"
      }
    ],
    "types": {
      "t_address": {
        "encoding": "inplace",
        "label": "address",
        "numberOfBytes": "20"
      },
      "t_contract(AggregatorV3Interface)45": {
        "encoding": "inplace",
        "label": "contract AggregatorV3Interface",
        "numberOfBytes": "20"
      },
      "t_mapping(t_address,t_mapping(t_address,t_uint256))": {
        "encoding": "mapping",
        "key": "t_address",
        "label": "mapping(address => mapping(address => uint256))",
        "numberOfBytes": "32",
        "value": "t_mapping(t_address,t_uint256)"
      },
      "t_mapping(t_address,t_uint256)": {
        "encoding": "mapping",
        "key": "t_address",
        "label": "mapping(address => uint256)",
        "numberOfBytes": "32",
        "value": "t_uint256"
      },
      "t_string_storage": {
        "encoding": "bytes",
        "label": "string",
        "numberOfBytes": "32"
      },
      "t_struct(Misc)1108_storage": {
        "encoding": "inplace",
        "label": "struct MedShareContract.Misc",
        "members": [
          {
            "astId": 1101,
            "contract": "contracts/MedShareContract.sol:MedShareContract",
            "label": "twelfth",
            "offset": 0,
            "slot": "0",
            "type": "t_uint256"
          },
          {
            "astId": 1103,
            "contract": "contracts/MedShareContract.sol:MedShareContract",
            "label": "tenth",
            "offset": 0,
            "slot": "1",
            "type": "t_uint256"
          },
          {
            "astId": 1105,
            "contract": "contracts/MedShareContract.sol:MedShareContract",
            "label": "fifth",
            "offset": 0,
            "slot": "2",
            "type": "t_uint256"
          },
          {
            "astId": 1107,
            "contract": "contracts/MedShareContract.sol:MedShareContract",
            "label": "halfShekelConst",
            "offset": 0,
            "slot": "3",
            "type": "t_uint256"
          }
        ],
        "numberOfBytes": "128"
      },
      "t_uint256": {
        "encoding": "inplace",
        "label": "uint256",
        "numberOfBytes": "32"
      }
    }
  }
}